:020000040800F2
:10000000B06C002001060008A5030008A703000843
:10001000AB030008AF030008B303000800000000B2
:10002000000000000000000000000000B70300080E
:10003000B9030008000000002BBE000839290008A1
:100040001B0600081B0600081B0600081B0600080C
:100050001B0600081B0600081B0600081B060008FC
:100060001B0600081B0600081B0600081B060008EC
:100070001B0600081B0600083F3500085138000821
:100080001B0600082D3200081B0600081B0600088E
:100090001B0600081B0600081B0600081B060008BC
:1000A0001B0600081B0600081B0600081B060008AC
:1000B0001B0600081B0600081B0600081B0600089C
:1000C0001B0600081B0600081B0600081B0600088C
:1000D0001B0600088F2E00089D310008AF34000871
:1000E0001B0600081B0600081B0600081B0600086C
:1000F0001B0600081B0600081B0600080D3E000832
:100100001B0600081B0600081B0600081B0600084B
:10011000C13700087F3D00081B060008752C000849
:10012000DB3A00081B0600081B0600081B06000837
:100130001B0600081B0600081B0600081B0600081B
:100140001B0600081B0600081B0600081B0600080B
:100150001B0600081B0600081D2F00081B060008D0
:100160001B0600081B0600081B0600081B060008EB
:100170001B0600081B0600081B0600081B060008DB
:100180001B0600081B06000800F002F800F03CF80F
:100190000AA090E8000C82448344AAF10107DA45E2
:1001A00001D100F031F8AFF2090EBAE80F0013F0F8
:1001B000010F18BFFB1A43F00103184798C0000055
:1001C000B8C00000103A24BF78C878C1FAD85207E6
:1001D00024BF30C830C144BF04680C6070470000C1
:1001E0000023002400250026103A28BF78C1FBD840
:1001F000520728BF30C148BF0B6070471FB50BF0D6
:100200004FFE1FBD10B510BD0BF0BFFD1146FFF72F
:10021000F5FF00F066F80BF0DDFD03B4FFF7F2FF29
:1002200003BC0BF0E1FD0000704710B502F066FC66
:100230004FF4E13002F021FE4FF4E13002F0A4FF70
:100240004FF4E13003F029F94FF4E13003F0AEFA56
:100250004FF4E13003F089FD542140F2E73003F020
:1002600037FB03F057FC03F013FE10BD30B58BB025
:100270000446002500BF09F0ABFD0AA807F003F90A
:100280000AAA0121084604F0DDF800BF00BF09F00A
:1002900069FD054600BF00BF0AA8032100220592A0
:1002A000CDE90621089010464FF480616622324B5A
:1002B000CDE90132CDE90310042000232F4A30A1FB
:1002C0000090324807F02BFC0AA9314808F0E7FB00
:1002D00000BF00BF284609F049FD00BF00BF0BB0BA
:1002E00030BD8AB00024072302224FF4A8710820F1
:1002F00002F0A8FBA82002F02BFB4FF4E06000F016
:100300009FF9072302224FF4A871082002F09AFBFC
:10031000FFF78BFFFFF788FF09A803F06FFE00BF10
:1003200000BF09F01FFD044600BF00BF09A803215C
:1003300000220592CDE90621089010464FF4806115
:100340006622144BCDE90132CDE9031003200023CE
:10035000AFF2E70210A100900D4807F0E0FB00BFEC
:1003600000BF204609F002FD00BF00BF09A804F04D
:1003700009F900BFFEE7000080120020CD0500084B
:10038000746573745F7461736B000000BC110020AE
:10039000F8000020BC010020737461727420746145
:1003A000736B0000704700BFFEE700BFFEE700BFB1
:1003B000FEE700BFFEE77047704700000CB5002065
:1003C000019000907648006840F4803074490860DD
:1003D00000BF7348006800F4003000900198401C92
:1003E0000190009818B90198B0F5A04FF1D16C4870
:1003F000006800F4003010B10120009001E00020FE
:1004000000900098012846D165484030006840F0CF
:1004100080506349403108606248006840F44040C1
:10042000604908605E48083000685D49083108602E
:100430000846006840F4004008600846006840F440
:10044000A05008605848091F0860081F006840F065
:100450008070091F086000BF5148006800F00070FC
:100460000028F9D040F20570504908604C48083027
:10047000006820F003004A49083108600846006817
:1004800040F00200086000BF45480830006800F0F6
:100490000C000828F8D10CBD10B54548006840F4A0
:1004A0007000434908603E48006840F001003C4944
:1004B000086000203A4908310860394800683D4921
:1004C0000840374908603C48091D0860081F00685B
:1004D00020F48020091F0860002031490C31086099
:1004E000FFF76CFF4FF0006031498039086010BDA4
:1004F00070B500200022022300240221284D083577
:100500002D6805F00C0020B1042806D0082834D14D
:1005100007E02A4D2A4E356033E02A4D284E3560DB
:100520002FE01F4D2D1D2D68C5F380541C4D2D1D32
:100530002D6805F03F0154B1224DB5FBF1F5184E81
:10054000361D3668C6F3881605FB06F209E01B4D1A
:10055000B5FBF1F5124E361D3668C6F3881605FB5D
:1005600006F20F4D2D1D2D68C5F301456D1C6B0066
:10057000B2FBF3F5124E356003E0104D104E3560BE
:1005800000BF00BF064D08352D68C5F303150E4E9C
:10059000705D0B4D2D68C540094E356070BD000083
:1005A000003802400070004008544007003C024000
:1005B00088ED00E0FFFFF6FE103000240024F40078
:1005C0000000002000127A00040000200EB500BFD9
:1005D0000DE00E2106A002F042FE02A800214FF419
:1005E000FA730A46CDE90010084608F0E8FDF0E786
:1005F0006F7320746573742072756E0D0A000000AD
:100600000948804709480047FEE7FEE7FEE7FEE7A6
:10061000FEE7FEE7FEE7FEE7FEE7FEE704480549E2
:10062000054A064B7047000099040008890100083C
:10063000B0660020B06C0020B0680020B0680020D8
:1006400032490143324A1160704770B500210023DE
:100650000F22C4781CB32E4C246804F4E064C4F563
:10066000E064C4F30721C1F10404E3B20A41447811
:100670009C40E1B28478144021430C07210E254CA4
:1006800005786155047804F01F050124AC40057815
:100690006D11AD0005F1E025C5F8004109E00478D1
:1006A00004F01F050124AC401B4D0678761145F877
:1006B000264070BD194A0A400243154B1B1F1A60A1
:1006C000704739B1124A121D12680243104B1B1DAC
:1006D0001A6006E00E4A121D126882430C4B1B1D65
:1006E0001A607047042808D14FF0E021096941F0F1
:1006F00004014FF0E022116107E04FF0E0210969A9
:1007000021F004014FF0E022116170470000FA056A
:100710000CED00E000E400E080E100E080FFFF1F5E
:1007200010B50121080200F0D4FF00214FF48070C1
:1007300000F0CFFF10BD30B5024600200023506806
:10074000F84C20400D790C6844EA052420435060A1
:100750009068F54C2040D1E903542C438D682C431C
:100760004D7944EA450420439060D06A20F470003B
:100770000C7D641EE4B2234340EA0350D06230BDD6
:1007800000210160017141718160C160016101213D
:10079000017570470021E54A1168E54A1140D0E92A
:1007A00000231A4383681A43C3681A431143E14A7A
:1007B000C2F8041370470021016041608160C1608C
:1007C000704721B1826842F00102826003E08268D2
:1007D00022F00102826070470A4600214168D64B30
:1007E00019401143416070474162826270470A4676
:1007F0000021416821F01F0111434160704738B169
:10080000CA49096841F40001CA4AC2F8041306E063
:10081000C649096821F40001C64AC2F804137047AA
:1008200038B1C249096841F48001C24AC2F80413D0
:1008300006E0BE49096821F48001BE4AC2F80413EB
:100840007047F0B504460D4600200021092D11DD4A
:10085000E068A5F10A0606EB4607072606FA07F147
:100860008843A5F10A0606EB460603FA06F108439B
:10087000E0600CE0206905EB4507072606FA07F162
:10088000884305EB450603FA06F108432061072A71
:100890000FDA606B561E06EB86071F2606FA07F175
:1008A0008843561E06EB860605FA06F10843606388
:1008B00022E00D2A0FDA206BD61F06EB86071F26D3
:1008C00006FA07F18843D61F06EB860605FA06F1FD
:1008D0000843206310E0E06AA2F10D0606EB8607EC
:1008E0001F2606FA07F18843A2F10D0606EB8606DD
:1008F00005FA06F10843E062F0BD816841F08041ED
:1009000081607047014600208A6802F080420AB187
:10091000012000E00020704721B1826842F480622B
:10092000826003E0826822F480628260704721B1B5
:10093000826842F00202826003E0826822F00202D2
:100940008260704710B50A4600210023416821F4F7
:100950006041531E41EA4331416010BD21B14268FC
:1009600042F40062426003E0426822F400624260A6
:1009700070470146C86C80B270476C48001D006823
:10098000704721B1826842F48072826003E082681D
:1009900022F480728260704721B1826842F4007252
:1009A000826003E0826822F400728260704738B18E
:1009B0005E49096841F400515E4AC2F8041306E03A
:1009C0005A49096821F400515A4AC2F80413704781
:1009D000F0B504461546002000220026092911DD45
:1009E000E068A1F10A0707EB470C072707FA0CF2AA
:1009F0009043A1F10A0707EB470703FA07F21043F8
:100A0000E0600CE0206901EB410C072707FA0CF2CB
:100A1000904301EB410703FA07F210432061A06BFA
:100A2000C0F30156EF1C06F1010CA7EB0C0707EB16
:100A3000870C1F2707FA0CF29043EF1C06F1010CFC
:100A4000A7EB0C0707EB870701FA07F21043A06337
:100A5000F0BD10B50A4600210023816B21F440113E
:100A6000531E41EA0351816310BD08B50023009372
:100A70000090009B0B440093009B1A6008BD0A463F
:100A80000021816821F470211143816070470A467A
:100A90000021816821F44011114381607047816811
:100AA00041F4800181607047014600208A6802F4A9
:100AB00080020AB1012000E00020704721B14268A5
:100AC00042F48062426003E0426822F48062426045
:100AD000704721B1426842F48052426003E04268AC
:100AE00022F480524260704708B502460020009010
:100AF000009201F12800009B1844009000980068C3
:100B000080B208BD10B50B460021D9B2012404FA09
:100B100001F11AB144680C43446002E044688C431C
:100B2000446010BDFFFEFFFCFDF7FFC00423014041
:100B3000E030FCFF00200140FFFD3FFF02460020A7
:100B400013680B400BB1012000E000207047CA433E
:100B50000260704770B502460020002300240B128B
:100B6000556801268E4005EA060415681D4015B13A
:100B70000CB1012000E0002070BD00220A12D34316
:100B800003607047016821F00101016000210160EC
:100B900041608160C160016121214161DB4988427E
:100BA00004D13D21D94A103A91608CE0D7491831DF
:100BB000884205D14FF47461D44A103A916082E0C2
:100BC000D2493031884205D14FF47411CF4A103ADE
:100BD000916078E0CD494831884205D14FF0746189
:100BE000CA4A103A91606EE0C8496031884204D127
:100BF000C749C64A103AD16065E0C4497831884295
:100C000004D1C449C14A103AD1605CE0BF49903177
:100C1000884204D1C049BD4A103AD16053E0BB4973
:100C2000A831884205D14FF03D51B84A103AD16001
:100C300049E0BA49884204D13D21B84A083A1160D6
:100C400041E0B6491831884205D14FF47461B34A86
:100C5000083A116037E0B1493031884205D14FF48C
:100C60007411AE4A083A11602DE0AC49483188420F
:100C700005D14FF07461A94A083A116023E0A749F1
:100C80006031884204D1A249A44A121F11601AE0BF
:100C9000A2497831884204D19E49A04A121F1160AE
:100CA00011E09E499031884204D19B499B4A121F12
:100CB000116008E09949A831884204D14FF03D51B4
:100CC000964A121F1160704710B500220268944BBB
:100CD0001A40CC680B6823434C6923438C69234337
:100CE000CC6923430C6A23434C6A23438C6A234315
:100CF0004C6B23438C6B23431A430260426922F0FE
:100D00000702D1E90B3423431A4342610B69436064
:100D10004B6883608B68C36010BD00210160416037
:100D20008160C160016141618161C16101624162B3
:100D30008162C162016341638163704721B10268CE
:100D400042F00102026003E0026822F00102026048
:100D5000704721B1026842F40042026003E0026879
:100D600022F400420260704721B1026842F0200282
:100D7000026003E0026822F02002026070474160D6
:100D800070470146486880B2704722B1036843F457
:100D90000023036003E0036823F400230360016180
:100DA000704721B1026842F48022026003E00268C9
:100DB00022F48022026070470AB1016100E0C16044
:100DC0007047014600200A6802F400220AB101209F
:100DD00000E000207047014600200A6802F001028E
:100DE0000AB1012000E000207047014600204A6956
:100DF00002F03800704730B503460A460020002450
:100E0000464DAB4202D24149103901E04349103905
:100E100002F000550DB14C6800E00C68414D2C40CB
:100E200004EA02050DB1012000E0002030BD0246B9
:100E30003A4B9A4202D23548103801E03748103810
:100E400001F000531BB1374B0B40C36002E0354B40
:100E50000B408360704710B501F080034BB122B1A5
:100E6000436943F08003436103E0436923F0800357
:100E7000436180290BD02AB1036801F01E0423438B
:100E8000036004E0036801F01E04A343036010BD87
:100E900070B50246002000240025204EB24202D246
:100EA0001A4B103B01E01D4B103B1F4E0E4036B15C
:100EB0001E2606EAD124166806EA040502E05669F1
:100EC00006F0800501F000560EB15C6800E01C6879
:100ED000144E344004EA010616B10DB1012000E0C1
:100EE000002070BD02460D4B9A4202D207481038CE
:100EF00001E00A48103801F000531BB1094B0B40C8
:100F0000C36002E0074B0B408360704710600240F3
:100F10003D000020400F002000003D2010640240F2
:100F20003F801CF07D0F7D0F3C0F3C0F10B5044639
:100F30009848844208D10121084600F086FB002130
:100F4000012000F082FB76E09348844208D1012121
:100F5000022000F07AFB0021022000F076FB6AE01C
:100F60008E48844208D10121042000F06EFB00214C
:100F7000042000F06AFB5EE08948844208D1012128
:100F8000082000F062FB0021082000F05EFB52E028
:100F90008448844208D10121102000F056FB002132
:100FA000102000F052FB46E07F48844208D1012126
:100FB000202000F04AFB0021202000F046FB3AE010
:100FC0007A48844208D10121402000F03EFB0021F4
:100FD000402000F03AFB2EE07548844208D1012100
:100FE000802000F032FB0021802000F02EFB22E068
:100FF0007048844208D10121801500F026FB0021B1
:10100000A01500F022FB16E06B48844208D10121B4
:10101000401500F01AFB0021601500F016FB0AE0F5
:101020006648844207D10121001500F00EFB002123
:10103000201500F00AFB10BDF0B50A460021002380
:10104000002400BF3DE0012505FA01F3156805EA1B
:1010500003049C4234D105684F000326BE40B543CB
:10106000056015794E00B540066835430560157971
:10107000012D02D01579022D16D185684F00032667
:10108000BE40B543856055794E00B540866835430E
:101090008560456801268E40B54345604568967970
:1010A0008E40B6B235434560C5684F000326BE404A
:1010B000B543C560D5794E00B540C6683543C560B7
:1010C000491C1029BFD3F0BD4FF6FF71016000210C
:1010D000017141718171C171704708B54FF480325F
:1010E0000092009A0A430092009AC261C161009A7C
:1010F000C261C2690092C269009208BD0246002026
:1011000013690B400BB1012000E00020704701463D
:10111000086980B270470246002053690B400BB14A
:10112000012000E0002070470146486980B2704706
:1011300001837047418370470AB1018300E0418316
:1011400070474161704742694A4042617047F0B55B
:10115000002300244D07ED0E02FA05F3CE1000F136
:10116000200555F826504E07F70E0F26BE40B54312
:10117000CF1000F1200646F82750CE1000F12005D0
:1011800055F8265045EA0304CE1000F1200545F835
:101190002640F0BD0000024000040240000802406A
:1011A000000C0240001002400014024000180240EF
:1011B000001C02400020024000240240002802409F
:1011C000F948006840F00100F74908600020F6493E
:1011D00008310860F4480068F4490840F2490860A2
:1011E000F348091D0860F348EF4984310860F0486E
:1011F0001038091D0860EC48006820F48020EA4996
:1012000008600020E8490C310860E7498C3108602B
:1012100070470021E44A921C117011460870704713
:1012200010B501460022002300204A11012A02D1F4
:10123000DD4C236808E0022A03D1DB4C70342368BC
:1012400002E0D94C7434236801F01F020124944059
:101250001C400CB1012000E0002010BD38B500207A
:1012600000900024002500BF3120FFF7D9FF05467C
:101270000098401C00900098B0F5A04F01D0002DC0
:10128000F2D03120FFF7CCFF08B1012400E00024A8
:10129000204638BD01460020C34A106820F0F800FF
:1012A00040EAC10010607047C349086070470021E0
:1012B000BD4A703211701170012802D004280AD181
:1012C00004E00121B84A7032117005E00521B64AE8
:1012D0007032117000E000BF00BF7047B74908606E
:1012E000704770B5049C41EA82150126C6EB53068F
:1012F00045EA0645054345EA0465AB4E361D3560B3
:1013000070BDAD4908667047820142EA0172A64B82
:1013100084331A607047A8498866704710B5830106
:1013200043EA016343EA02739F4C8834236010BD93
:10133000A14908677047A049C86470470246002069
:10134000994B0833186820F0EC6042EA0103184317
:10135000954B08331860704702460020924B0833C3
:10136000186820F0784042EA010318438E4B083396
:1013700018607047014600208B4A0832106820F040
:10138000030008431060704787480830006800F089
:101390000C00704701460020834A0832106820F094
:1013A000F000084310607047014600207E4A083272
:1013B000106820F4E0500843106070470146002098
:1013C000794A0832106820F4604040EAC100106099
:1013D0007047F0B5002100220024022500260223D8
:1013E000714F08373F6807F00C0121B1042905D07F
:1013F000082937D105E0724F076036E0714F07606A
:1014000033E0694F3F1D3F68C7F38056664F3F1D6D
:101410003F6807F03F036EB16A4FB7FBF3F7DFF8A1
:1014200088C10CF1040CDCF800C0CCF3881C07FB6D
:101430000CF40CE0624FB7FBF3F7DFF86CC10CF172
:10144000040CDCF800C0CCF3881C07FB0CF4564FEE
:101450003F1D3F68C7F301477F1C7D00B4FBF5F7D4
:10146000076002E0564F076000BF00BF4E4F0837CD
:101470003F6807F0F0010909534F7A5C0768D740CD
:101480004760494F08373F6807F4E051890A4E4FDB
:101490007A5C4768D7408760434F08373F6807F456
:1014A0006041490B484F7A5C4768D740C760F0BD40
:1014B000002100F44072B2F5407F0AD13A4A083266
:1014C000116821F4F811414A02401143364A0832AA
:1014D0001160354A70321268C0F30B031A43324B65
:1014E00070331A6070473549443908607047334992
:1014F000403908607047364908607047014600204F
:10150000294A8C32106820F01F004A1E1043264AD8
:101510008C321060704701460020234A8C321068DC
:1015200020F4F8504A1E40EA02201F4A8C32106014
:101530007047014600201C4A8C32106820F440108D
:1015400008431060704701460020174A8C3210682B
:1015500020F4400008431060704701460020124A02
:101560008C32106820F440300843106070471949ED
:101570000860704739B10C4A3032126802430A4B96
:1015800030331A6006E0084A303212688243064B54
:1015900030331A607047F9B1034A3432126802439B
:1015A000014B34331A601CE000380240FFFFF6EABA
:1015B000103000240030002000004742800E4742D7
:1015C0000024F40000127A0014000020FFFCFF0F3A
:1015D0005C014742E01147428F4A126882438E4BBA
:1015E0001A60704739B18C4A121D126802438A4B47
:1015F0001B1D1A6006E0884A121D12688243864B42
:101600001B1D1A60704739B1834A0C3212680243BD
:10161000814B0C331A6006E07F4A0C321268824319
:101620007D4B0C331A60704739B17B4A1032126817
:101630000243794B10331A6006E0774A1032126881
:101640008243754B10331A60704739B1724A243A9D
:1016500012680243704B243B1A6006E06E4A243A3B
:10166000126882436C4B243B1A60704739B16A4A56
:10167000203A12680243684B203B1A6006E0664A33
:10168000203A12688243644B203B1A60704739B19C
:10169000614A1C3A126802435F4B1C3B1A6006E029
:1016A0005D4A1C3A126882435B4B1C3B1A607047D0
:1016B00039B1594A143A12680243574B143B1A6025
:1016C00006E0554A143A12688243534B143B1A60A1
:1016D000704739B1504A103A126802434E4B103BE2
:1016E0001A6006E04C4A103A126882434A4B103B9B
:1016F0001A60704739B1484A1C3212680243464B9F
:101700001C331A6006E0444A1C3212688243424B82
:101710001C331A60704739B13F4A203212680243C5
:101720003D4B20331A6006E03B4A20321268824368
:10173000394B20331A60704739B1374A2432126866
:101740000243354B24331A6006E0334A24321268D0
:101750008243314B24331A60704739B12E4A2C3200
:10176000126802432C4B2C331A6006E02A4A2C32B2
:1017700012688243284B2C331A60704739B1264ACD
:10178000303212680243244B30331A6006E0224A9A
:10179000303212688243204B30331A607047012880
:1017A00008D11D493C31096841F008011A4A3C3210
:1017B000116007E018493C31096821F00801164A18
:1017C0003C321160704739B1134A273A127802430C
:1017D000114B273B1A7006E00F4A273A12788243D2
:1017E0000D4B273B1A7070470B484030006840F0A3
:1017F0008070094940310860704701460020064A60
:10180000283A12680A400AB1012000E0002070471F
:1018100001492639087070473438024010B5044633
:10182000FE48844208D101210846FFF752FF0021FB
:101830000120FFF74EFF9DE0B4F1804F08D1012158
:101840000846FFF735FF00210120FFF731FF91E047
:10185000F348844208D101210220FFF729FF00212B
:101860000220FFF725FF85E0EE48844208D10121E0
:101870000420FFF71DFF00210420FFF719FF79E086
:10188000E948844208D101210820FFF711FF002117
:101890000820FFF70DFF6DE0E448844208D10121E4
:1018A0001020FFF705FF00211020FFF701FF61E086
:1018B000DF48844208D101212020FFF7F9FE0021F2
:1018C0002020FFF7F5FE55E0DA48844208D10121D7
:1018D0000220FFF7FEFE00210220FFF7FAFE49E09A
:1018E000D548844209D101210804FFF7F2FE002106
:1018F0004FF48030FFF7EDFE3CE0D048844209D140
:1019000001214804FFF7E5FE00214FF40030FFF706
:10191000E0FE2FE0CA48844209D101218804FFF784
:10192000D8FE00214FF48020FFF7D3FE22E0C54807
:10193000844208D101214020FFF7BAFE0021402057
:10194000FFF7B6FE16E0C048844208D1012180208E
:10195000FFF7AEFE00218020FFF7AAFE0AE0BB4899
:10196000844207D101218015FFF7A2FE0021A015B6
:10197000FFF79EFE10BD00220288A84B98420ED0B1
:10198000AC4B98420BD0B0F1804F08D0A44B98429A
:1019900005D0A44B984202D0A34B984204D14FF6F5
:1019A0008F731A404B881A43A04B984207D0A04B24
:1019B000984204D04FF6FF431A400B891A43028025
:1019C0004B68C3620B880385944B984202D0994BB5
:1019D000984201D18B7A03860123838270474FF0AE
:1019E000FF31416000210180018141808172704797
:1019F0000185828270470A46002101884FF68F7365
:101A0000194011430180704741627047C1627047BD
:101A10000146486A70470146088D704721B1028827
:101A200042F00202028004E002884FF6FD731A4081
:101A30000280704721B1028842F00402028004E073
:101A400002884FF6FB731A400280704721B102886A
:101A500042F08002028004E002884FF67F731A4051
:101A60000280704702884FF6F7731A40028002889E
:101A70000A430280704702884FF6FF431A400280F3
:101A800002880A430280704721B1028842F00102B5
:101A9000028004E002884FF6FE731A40028070470D
:101AA00070B5002400220023058C4FF6FE763540E9
:101AB0000584028C8388048B4FF68F752C40B51EED
:101AC0002C400D882C43751E2A408D892A434D8851
:101AD0002A43524DA84202D0564DA84213D14FF688
:101AE000F7752A40CD892A434FF6FB752A408D8829
:101AF0002A434FF6FF652B404FF6FF552B400D8ACA
:101B00002B434D8A2B43838004838D684563028475
:101B100070BD70B5002400220023058C4FF6EF76CF
:101B200035400584028C8388048B48F6FF752C4071
:101B30004FF6FF452C400D884FF6FF7606EA052547
:101B40002C434FF6DF752A408D8906EA05152A4396
:101B50004D8806EA05152A43304DA84202D0354D7E
:101B6000A8421DD14FF67F752A40CD894FF6FF76EA
:101B700006EA05152A434FF6BF752A408D8806EA06
:101B800005152A434FF6FF352B404FF2FF752B40CA
:101B90000D8A06EA85052B434D8A06EA85052B4307
:101BA000838004838D688563028470BD70B50024D2
:101BB00000220023058C4FF6FF6635400584028C19
:101BC0008388848B4FF68F752C404FF6FC752C4024
:101BD0000D882C434FF6FF552A408D894FF6FF762E
:101BE00006EA05252A434D8806EA05252A430B4DBA
:101BF000A84202D00F4DA84238D14FF2FF752A40BB
:101C0000CD894FF6FF7606EA05252A434FF6FF35C4
:101C10002A408D8806EA05252A4319E00000014084
:101C20000004004000080040000C0040001000408C
:101C30000014004000040140004001400044014005
:101C40000048014000180040001C004000200040F7
:101C50004EF6FF752B404DF6FF752B400D8A06EAB8
:101C600005152B434D8A06EA05152B438380848393
:101C70008D68C563028470BD70B500220023002406
:101C8000058C4EF6FF7635400584038C8488828B64
:101C900048F6FF752A404FF6FF452A400D884FF65B
:101CA000FF7606EA05252A434DF6FF752B408D8900
:101CB00006EA05352B434D8806EA05352B43FE4DD4
:101CC000A84202D0FD4DA84208D14BF6FF752C402A
:101CD0000D8A4FF6FF7606EA85152C4384808283B1
:101CE0008D680564038470BD00210180418081807E
:101CF00081608181C18101824182704770B5034654
:101D0000002000241846183001258D40ACB21D8CEF
:101D1000A5431D8409B108290AD100EB61000568BB
:101D20004FF68F76354005600568154305600FE076
:101D30000D1FC5F34E052844056848F6FF7635406B
:101D4000056005684FF6FF7606EA02263543056012
:101D500070BD4163704781637047C1637047016420
:101D600070470A460021018B4FF68F7319401143CB
:101D7000018370470A460021018B48F6FF73194022
:101D80004FF6FF7303EA02231943018370470A46A3
:101D90000021818B4FF68F73194011438183704767
:101DA0000A460021818B48F6FF7319404FF6FF73F6
:101DB00003EA02231943818370470A460021018BFD
:101DC0004FF6F77319401143018370470A4600210B
:101DD000018B4FF2FF7319404FF6FF7303EA0223A2
:101DE0001943018370470A460021818B4FF6F77330
:101DF00019401143818370470A460021818B4FF2BD
:101E0000FF7319404FF6FF7303EA022319438183DE
:101E100070470A460021018B4FF6FB7319401143AE
:101E2000018370470A460021018B4FF6FF331940AA
:101E30004FF6FF7303EA02231943018370470A46F2
:101E40000021818B4FF6FB7319401143818370474A
:101E50000A460021818B4FF6FF3319404FF6FF737E
:101E600003EA02231943818370470A460021018B4C
:101E70004FF67F7319401143018370470A460021D2
:101E8000018BC1F30E014FF6FF7303EA02231943DE
:101E9000018370470A460021818B4FF67F731940FA
:101EA0001143818370470A460021818BC1F30E01E3
:101EB0004FF6FF7303EA02231943818370470A46F2
:101EC0000021018C4FF6FD731940114301847047C6
:101ED0000A460021018C4FF6F77319401143018423
:101EE00070470A460021018C4FF6DF7319404FF608
:101EF000FF7303EA02131943018470470A46002165
:101F0000018C4FF67F7319404FF6FF7303EA0213FB
:101F10001943018470470A460021018C4FF6FF5394
:101F200019404FF6FF7303EA0223194301847047F7
:101F30000A460021018C4FF2FF7319404FF6FF73E0
:101F400003EA02231943018470470A460021018CE9
:101F50004DF6FF7319404FF6FF7303EA023319433E
:101F60000184704730B5002301248C40A3B2048C57
:101F70009C430484048C02FA01F5ADB22C43048422
:101F800030BD30B5002304248C40A3B2048C9C43A4
:101F90000484048C02FA01F5ADB22C43048430BDF4
:101FA000828B4FF2FF331A408283828B4FF6FF738E
:101FB00003EA01231A4382837047F0B50C461546A5
:101FC000002100220026078C4EF6FF7C07EA0C0752
:101FD0000784818B028C4FF6FF7707EA043640F6C0
:101FE000FF4739404FF6FF7707EA052739434FF699
:101FF000FF7707EA0337394345F6FF773A4046F45F
:1020000080573A4381830284F0BD828B4FF6F3738D
:102010001A408283828B0A4382837047F0B50C4654
:102020001546002100220026078C4FF6FF6C07EAB8
:102030000C070784818B028C4FF6FF7707EA042692
:102040004FF60C7739404FF6FF7707EA03172F4317
:1020500039434FF2FF573A4046F480773A43818341
:102060000284F0BD028B4FF2FF331A400283028BD1
:102070004FF6FF7303EA01231A4302837047F0B55A
:102080000C461546002100220026078C4FF6EF7CF7
:1020900007EA0C070784018B028C4FF6FF7707EAEB
:1020A000041640F6FF4739404FF6FF7707EA03373B
:1020B00039434FF6FF7703E0000001400004014080
:1020C00007EA052739434FF65F773A4046F0100795
:1020D0003A4301830284F0BD028B4FF6F3731A403A
:1020E0000283028B0A4302837047F0B50C46154603
:1020F00000210022068C4FF6FE773E400684018BBD
:10210000028C4FF60C7631407E1C06EA03162E43F5
:1021100031434FF6F576324044F0010632430183F5
:102120000284F0BD70B505460C46208850B923895D
:10213000A28861882846FFF7D8FFE1882846FFF784
:10214000CBFF25E0208804280AD12389A288618852
:102150002846FFF794FFE1882846FFF783FF17E042
:10216000208808280AD12389A28861882846FFF799
:1021700055FFE1882846FFF748FF09E02389A28838
:1021800061882846FFF719FFE1882846FFF708FF16
:1021900070BD002101804180012181800021C1802A
:1021A000018170472DE9F04105460C4600260127C4
:1021B000608808B9022600E00026A088012801D125
:1021C000022700E001272088A0B92389A28861881E
:1021D0002846FFF78AFFE1882846FFF77DFF23891D
:1021E0003A4631462846FFF74AFFE1882846FFF77E
:1021F00039FF13E02389A28861882846FFF73FFF53
:10220000E1882846FFF72EFF23893A4631462846C3
:10221000FFF76BFFE1882846FFF75EFFBDE8F0811E
:102220000146486B70470146886B70470146C86B92
:1022300070470146086C70470A884B881A438B88A0
:102240001A43CB881A430B891A434B891A438B894B
:102250001A43A0F84420704700210180418081800A
:10226000C180018141818181704731B1B0F8442042
:1022700042F40042A0F8442005E0B0F84420C2F344
:102280000E02A0F84420704721B1828842F0040277
:10229000828004E082884FF6FB731A408280704788
:1022A00021B1828842F00102828004E082884FF6E8
:1022B000FE731A40828070471AB183890B43838171
:1022C00002E083898B438381704781827047024695
:1022D0000020138A0B400BB1012000E00020704762
:1022E000CA430282704730B5024600200023002412
:1022F000158A05EA0103958905EA010413B10CB1B9
:10230000012000E0002030BDCA430282704741EA4C
:102310000203A0F8483070471AB183890B438381C8
:1023200002E083898B438381704721B1828842F028
:102330000802828004E082884FF6F7731A40828098
:10234000704701894FF6F8721140018170470A46C3
:10235000002101894FF68F731940114301817047A5
:1023600030B504460D4629462046FFF7F0FF208988
:1023700040F00700208130BD2DE9F04104460D46B4
:1023800016461F46602D06D13B46012231462046A7
:10239000FFF775FE05E03B46012231462046FFF778
:1023A000A4FE29462046FFF7D2FF208940F007000F
:1023B0002081BDE8F08130B50C4600210189C9B209
:1023C0004FF6FF7505EA032515432543294301818F
:1023D00030BD2DE9F04105460E46174698460024CB
:1023E00043463A4631462846FFF7E5FF2C894FF62B
:1023F000F870044044F007044FF68F70044044F036
:1024000070042C81BDE8F081F0B504460D461646F7
:102410001F463B46324629462046FFF7CCFF20891F
:1024200040F480402081F0BD82884FF68F731A40BF
:10243000828082880A438280704702894FF6F8734F
:102440001A40028102890A430281704702894FF6CD
:102450007F731A40028102890A4302817047F0B5F6
:102460000C4615461E460021002200230189028BDE
:10247000038C4FF6F877394021434FF6FC473A403A
:1024800040F201173A434FF6DD773B404FF6FF77B6
:1024900007EA06172F433B43018102830384F0BD03
:1024A00021B1828842F08002828004E082884FF667
:1024B0007F731A4082807047A0F850107047000068
:1024C00010B50446FA48844208D101211020FFF7D4
:1024D00000F900211020FFF7FCF857E0F54884428E
:1024E00009D101214804FFF7E3F800214FF400303F
:1024F000FFF7DEF84AE0F048844209D10121880460
:10250000FFF7D6F800214FF48020FFF7D1F83DE027
:10251000EA48844209D10121C804FFF7C9F8002123
:102520004FF40020FFF7C4F830E0E548844209D1B9
:1025300001210805FFF7BCF800214FF48010FFF7D8
:10254000B7F823E0DF48844208D101212020FFF7BB
:10255000C0F800212020FFF7BCF817E0DA488442D9
:1025600009D101218807FFF7A3F800214FF080402F
:10257000FFF79EF80AE0D548844207D101214005C3
:10258000FFF796F800216005FFF792F810BD2DE9DE
:10259000FF4705460E460024A14600BFA046B0896D
:1025A00000B100BF2C8A24F44054F08804432C82EC
:1025B000AC8941F20C608443B08831890843718949
:1025C00008430443AC81AC8A24F44074B0890443CA
:1025D000AC826846FEF7FDFEB548854202D0B94898
:1025E000854202D1DDF80C9001E0DDF80890A88961
:1025F00000F4004040B109EBC90000EB091031685C
:102600004900B0FBF1F707E009EBC90000EB091046
:1026100031688900B0FBF1F76420B7FBF0F00401EA
:102620002009642101FB1078A88900F4004040B122
:10263000322000EBC800B0FBF1F000F007000443CB
:1026400008E0322000EB08106421B0FBF1F000F04C
:102650000F0004432C81BDE8FF874FF41651016041
:1026600000218180C18001810C2141810021818173
:10267000704710B502460020108A20F470600B8865
:102680004C8823438C882343CC88234318431082EF
:1026900010BD0021018041808180C180704721B13F
:1026A000828942F40052828104E082894DF6FF73F0
:1026B0001A4082817047028B02F47F420283028BB0
:1026C0000A430283704721B1828942F40042828129
:1026D00003E08289C2F30E028281704721B1828AAF
:1026E00042F40062828204E0828A4FF2FF731A4051
:1026F00082827047C1F30802828070470146888851
:10270000C0F308007047028A4FF6F0731A40028245
:10271000028A0A430282704721B1828942F0020292
:10272000828104E082894FF6FD731A4082817047EE
:1027300082894FF2FF731A40828182890A43828123
:102740007047028A4FF6DF731A400282028A0A43F8
:102750000282704721B1028A42F48042028204E080
:10276000028A4BF6FF731A4002827047818941F05A
:1027700001018181704721B1828A42F00802828280
:1027800004E0828A4FF6F7731A4082827047028B08
:10279000D2B20283028B42EA01220283704721B146
:1027A000828A42F02002828204E0828A4FF6DF733E
:1027B0001A408282704721B1828A42F010028282DE
:1027C00004E0828A4FF6EF731A4082827047828A51
:1027D0004FF6FB731A408282828A0A4382827047D4
:1027E00021B1828A42F00202828204E0828A4FF69C
:1027F000FD731A40828270471AB1838A0B43838229
:1028000002E0838A8B4383827047F0B5034600243D
:1028100000260025002040F66A17B94200D100BF0B
:102820001846C1F3421401F01F06012707FA06F506
:10283000012C01D10C3004E0022C01D1103000E059
:1028400014301AB107682F43076002E00768AF43EE
:102850000760F0BD02460020B1F5007F00D100BF47
:1028600013880B400BB1012000E00020704701F4F9
:102870000072B2F5007F00D100BFCA4302807047EA
:1028800070B50246002400230025002040F66A1699
:10289000B14200D100BFC1F3421501F01F03012670
:1028A00006FA03F3012D13D19689334017E0000097
:1028B000001001400044004000480040004C00402F
:1028C000005000400014014000780040007C0040AF
:1028D000022D02D1168A334001E0968A33400C1251
:1028E000012606FA04F41688344013B10CB1012015
:1028F00000E0002070BD10B50022002340F66A14ED
:10290000A14200D100BF0A1201249440A3B2DC43CB
:10291000048010BD08B5684601F0BAFC08BD08B5D2
:10292000684601F0FFFC08BD38B504466A46082138
:10293000204606F0E9FB38BD10B56748007801284D
:1029400005D101F0EBFB06F0DFFD01F0F8FB10BD57
:1029500070B504466FF00400FDF7C4FE2046E11791
:1029600004EB5171C1F3C7015C4A1170E11704EB2C
:102970005171CD105A4800685A49B1FBF0F04543F7
:10298000574800684FF47A71B1FBF0F0564908805F
:102990004FF0E020006940F002004FF0E0210861B4
:1029A00008464561006940F00100086170BD2DE9ED
:1029B000F047074600264FF0E020D0F81490474833
:1029C000007807FB00F8FFF7A5FF4FF0E0208569CE
:1029D00011E04FF0E0208469AC420CD0AC4202D24E
:1029E000281B064403E0A9EB0400284406442546BE
:1029F000464500D300E0ECE700BFFFF790FFBDE8DD
:102A0000F08770B5044634480078A0B137480078A4
:102A100088B935480088844206DB3348008894FB37
:102A2000F0F52846FFF780FF2F48008894FBF0F16F
:102A300000FB114084B24FF47A7104FB01F0FFF700
:102A4000B6FF70BD2DE9FC4104460D4616461F46F3
:102A5000002001900120FEF7DCFBFEF7FFFB019058
:102A60000198012834D12248006840F08050204964
:102A700008602048006840F440401E49086000207B
:102A8000FEF788FC4FF48050FEF798FC4FF4A050FE
:102A9000FEF78AFC33462A4621464FF48000009711
:102AA000FEF71FFC0120FEF72CFC00BF3920FEF7CB
:102AB000B7FB0028FAD040F205700F4908600220E9
:102AC000FEF758FC00BFFEF75FFC0828FBD101E0D1
:102AD00000BFFEE7BDE8FC81590000202400002073
:102AE0000CBF000840420F002600002058000020C4
:102AF0004038024000700040003C02401CB50121FB
:102B00001620FEF737FD4FF44070009001208DF83D
:102B1000040000208DF8060003208DF80500012038
:102B20008DF8070069463348FEF786FA0E200090BC
:102B300069463148FEF780FA7C20009069462F48AC
:102B4000FEF77AFA4FF440712A48FEF7F1FA0E21A7
:102B50002948FEF7EDFA7C212848FEF7E9FA1CBD6A
:102B600010B5002400BF42E00A2C3AD2DFE804F09E
:102B7000050B11161B20252A2F344FF480711D4898
:102B8000FEF7D8FA2DE04FF400711A48FEF7D2FA9A
:102B900027E002211848FEF7CDFA22E0042116486A
:102BA000FEF7C8FA1DE008211348FEF7C3FA18E043
:102BB00004211248FEF7BEFA13E008210F48FEF781
:102BC000B9FA0EE010210D48FEF7B4FA09E0202111
:102BD0000A48FEF7AFFA04E040210848FEF7AAFAD7
:102BE00000BF00BFC820FFF70CFF601CC4B20A2C56
:102BF000BADB10BD00040240000802400010024091
:102C00007FB505460C4601212020FEF7FCFC4FF461
:102C1000E060FDF715FD37208DF8000000208DF8ED
:102C2000010003208DF8020001208DF803006846A2
:102C3000FDF70BFD0295ADF8044001A91348FEF71E
:102C40009AFE01211148FFF74BFB01210F48FFF7C6
:102C50005BFB012211460D48FFF72EFB00210B48BC
:102C6000FEF712FF7FBD10B5532140F2E730FFF7AA
:102C7000C7FF10BD10B501210448FFF734FB012840
:102C800003D101210148FFF73FFB10BD00140040B4
:102C900010B588B0044601210846FEF76BFC0121FF
:102CA0001020FEF7C1FC07220921B548FEF74FFAB4
:102CB00007220A21B248FEF74AFA02208DF81C00CA
:102CC00000208DF81E004FF4C060069001208DF8A2
:102CD0001F0002208DF81D0006A9A948FEF7ACF9D7
:102CE00002A8FFF7BAFC029402A9A648FFF74FFC1E
:102CF00025208DF8040000208DF8050001208DF8B6
:102D000006008DF8070001A8FDF79FFC012240F2A4
:102D100024419C48FFF779FD01219A48FFF7BFFC49
:102D200008B010BD00B591B001218805FEF722FC66
:102D30009548FDF727FF00BF9348FEF74CF80028A1
:102D4000FAD14FF0006002908E48001D03908F482A
:102D5000049040200590C0000690002007904FF49A
:102D600080600890002009900A900B904FF400308A
:102D70000C9000200D900E900F90109002A98248A8
:102D8000FDF7A2FF012210217F48FEF764F801221F
:102D900080217C48FFF730FD46208DF8040000209C
:102DA0008DF805008DF8060001208DF8070001A8B8
:102DB000FDF74BFC00BF74483038FEF70CF80028D4
:102DC000F9D100217048FDF7B9FF11B000BD00B581
:102DD00091B001218805FEF7CDFB6B483038FDF737
:102DE000D1FE00BF68483038FDF7F5FF0028F9D163
:102DF0004FF0006002906348001D03906448049007
:102E0000002005904FF400700690002007904FF4CA
:102E100080600890002009900A900B904FF4403099
:102E20000C9000200D900E900F90109002A9564823
:102E30003038FDF749FF012240215248FFF7DCFC02
:102E400044208DF8040000208DF8050002208DF844
:102E5000060001208DF8070001A8FDF7F6FB00BF72
:102E600049483038FDF7B7FF0028F9D1012146481D
:102E70003038FDF763FF11B000BD10B504462046A1
:102E8000FFF706FFFFF74EFFFFF7A1FF10BD10B5DC
:102E900001F044F940F224413A48FFF7F1FC70B3E5
:102EA00000BF38480088C4B236488088C4B20021C8
:102EB00035483038FDF742FF10213248FFF7D7FC84
:102EC00031483038FDF75DFFC0F5007031490880AA
:102ED000084602882E49801C08F0D7FE2E492A4851
:102EE0003038FDF7A4FF4FF4007127483038FDF764
:102EF00046FF012124483038FDF720FF00BF40F293
:102F000027712048FFF7A6FC28B9002240F226616D
:102F10001C48FFF77AFC01F012F910BD10B501F062
:102F2000FDF84FF020511848FDF765FF70B14FF0E4
:102F300020511548FDF77BFF00211348FDF7FEFEE9
:102F4000012240F226610F48FFF75FFC01F0F7F81D
:102F500010BD70B504460D462A4621460B4808F0C0
:102F600094FE00BF0848FDF736FF0028FAD1294635
:102F70000548FDF704FF01210348FDF7DFFE70BDA2
:102F80000000024000100140B8640240802200208E
:102F90008024002080260020400F002010B588B03B
:102FA000044601210846FEF7E5FA01214804FEF730
:102FB0002AFB07220221B548FEF7C9F807220321A0
:102FC000B248FEF7C4F802208DF81C0000208DF8EE
:102FD0001E000C20069001208DF81F0002208DF8A5
:102FE0001D0006A9A948FEF727F802A8FFF735FB40
:102FF000029402A9A648FFF7CAFA26208DF8040019
:1030000000208DF805000A208DF8060001208DF8BB
:10301000070001A8FDF719FB012240F224419C485A
:10302000FFF7F3FB01219A48FFF739FB08B010BD09
:1030300000B591B001214805FEF79CFA9548FDF7CF
:10304000A1FD00BF9348FDF7C6FE0028FAD14FF05E
:10305000006002908E48001D03908F48049040202D
:103060000590C0000690002007904FF48060089003
:10307000002009900A900B904FF400300C90002033
:103080000D900E900F90109002A98248FDF71CFE43
:10309000012210217F48FDF7DEFE012280217C48BD
:1030A000FFF7AAFB11208DF8040000208DF8050021
:1030B0000B208DF8060001208DF8070001A8FDF710
:1030C000C4FA00BF73481838FDF785FE0028F9D10F
:1030D00000217048FDF732FE11B000BD00B591B07F
:1030E00001214805FEF746FA6A481838FDF74AFDFF
:1030F00000BF68481838FDF76EFE0028F9D14FF080
:10310000006002906248001D039064480490002013
:1031100005904FF400700690002007904FF48060F7
:103120000890002009900A900B904FF440300C90CA
:1031300000200D900E900F90109002A9554818385D
:10314000FDF7C2FD012240215148FFF755FB102039
:103150008DF8040000208DF8050004208DF806008D
:1031600001208DF8070001A8FDF76FFA00BF49485C
:103170001838FDF730FE0028F9D1012145481838EC
:10318000FDF7DCFD11B000BD10B504462046FFF789
:1031900005FFFFF74DFFFFF7A1FF10BD10B500F0D1
:1031A000BDFF40F224413A48FFF76AFB78B300BF05
:1031B00037480088C4B23648001D0088C4B20021D8
:1031C00034481838FDF7BAFD10213148FFF74FFB9E
:1031D00030481838FDF7D5FDC0F50070304908803B
:1031E000084602882D49801C08F04FFD2D492948CA
:1031F0001838FDF71CFE4FF4007126481838FDF70B
:10320000BEFD012123481838FDF798FD00BF40F2AC
:1032100027711F48FFF71EFB28B9002240F22661E4
:103220001B48FFF7F2FA00F08AFF10BD10B500F05E
:1032300075FF1D491748FDF7DEFD68B11A491548AD
:10324000FDF7F5FD00211348FDF778FD012240F25E
:1032500026610F48FFF7D9FA00F071FF10BD70B575
:1032600004460D462A4621460B4808F00EFD00BFD5
:103270000848FDF7B0FD0028FAD129460548FDF7BA
:103280007EFD01210348FDF759FD70BD000002409D
:1032900000440040A0600240822A0020822C0020CE
:1032A000822E0020400F00200000202010B588B0A2
:1032B000044601210220FEF75DF901218804FEF792
:1032C000A2F907220A21B748FDF741FF07220B2187
:1032D000B448FDF73CFF02208DF81C0000208DF85B
:1032E0001E004FF44060069001208DF81F00022060
:1032F0008DF81D0006A9AB48FDF79EFE02A8FFF75A
:10330000ACF9029402A9A848FFF741F927208DF8EB
:10331000040000208DF8050006208DF8060001202D
:103320008DF8070001A8FDF790F9012240F2244131
:103330009D48FFF76AFA01219B48FFF7B0F908B0F2
:1033400010BD00B591B001214805FEF713F997486B
:10335000FDF718FC00BF9548FDF73DFD0028FAD1A8
:103360004FF0006002909048001D03909048049038
:1033700040200590C0000690002007904FF4806028
:103380000890002009900A900B904FF400300C90A8
:1033900000200D900E900F90109002A98348FDF729
:1033A00093FC012210218148FDF755FD0122802167
:1033B0007D48FFF721FA0E208DF8040000208DF8DB
:1033C000050007208DF8060001208DF8070001A8F0
:1033D000FDF73BF900BF75483038FDF7FCFC0028CD
:1033E000F9D100217148FDF7A9FC11B000BD00B56D
:1033F00091B001214805FEF7BDF86C483038FDF763
:10340000C1FB00BF69483038FDF7E5FC0028F9D161
:103410004FF0006002906448001D039065480490DE
:10342000002005904FF400700690002007904FF4A4
:1034300080600890002009900A900B904FF4403073
:103440000C9000200D900E900F90109002A95748FC
:103450003038FDF739FC012240215348FFF7CCF901
:103460000C208DF8040000208DF8050006208DF852
:10347000060001208DF8070001A8FDF7E6F800BF5F
:103480004A483038FDF7A7FC0028F9D10121474808
:103490003038FDF753FC11B000BD10B5044620468E
:1034A000FFF704FFFFF74DFFFFF7A1FF10BD10B5B9
:1034B00000F034FE40F224413B48FFF7E1F978B3D5
:1034C00000BF39480088C4B23748001D0088C4B224
:1034D000002136483038FDF731FC10213248FFF723
:1034E000C6F932483038FDF74CFCC0F5007032495F
:1034F0000880084602882F49801C08F0C6FB2F4927
:103500002A483038FDF793FC4FF4007127483038D3
:10351000FDF735FC012125483038FDF70FFC00BFD1
:1035200040F227712048FFF795F928B9002240F2B0
:1035300026611D48FFF769F900F001FE10BD10B5C6
:1035400000F0ECFD4FF0C0511848FDF754FC70B18D
:103550004FF0C0511548FDF76AFC00211348FDF7F4
:10356000EDFB012240F226610F48FFF74EF900F013
:10357000E6FD10BD70B504460D462A4621460C48AE
:1035800008F083FB00BF0948FDF725FC0028FAD1AD
:1035900029460648FDF7F3FB01210448FDF7CEFB61
:1035A00070BD000000040240004800405860024026
:1035B000843200208434002084360020400F001024
:1035C00010B588B0044601210846FDF7D3FF01215C
:1035D000C804FEF718F808220021B548FDF7B7FD2A
:1035E00008220121B248FDF7B2FD02208DF81C002F
:1035F00000208DF81E000320069001208DF81F008A
:1036000002208DF81D0006A9A948FDF715FD02A8A6
:10361000FFF723F8029402A9A648FEF7B8FF34206A
:103620008DF8040000208DF8050008208DF80600B4
:1036300001208DF8070001A8FDF707F8012240F2EC
:1036400024419C48FFF7E1F801219A48FFF727F849
:1036500008B010BD00B591B001214805FDF78AFF03
:103660009548FDF78FFA00BF9348FDF7B4FB00289B
:10367000FAD14FF0006002908E48001D03908F48F1
:10368000049040200590C0000690002007904FF461
:1036900080600890002009900A900B904FF4003051
:1036A0000C9000200D900E900F90109002A982486F
:1036B000FDF70AFB012210217F48FDF7CCFB012218
:1036C00080217C48FFF798F80F208DF80400002037
:1036D0008DF8050009208DF8060001208DF80700FF
:1036E00001A8FCF7B2FF00BF73483038FDF773FB49
:1036F0000028F9D100217048FDF720FB11B000BD72
:1037000000B591B001214805FDF734FF6A48303813
:10371000FDF738FA00BF68483038FDF75CFB002839
:10372000F9D14FF0006002906248001D0390644898
:103730000490002005904FF4007006900020079040
:103740004FF480600890002009900A900B904FF48D
:1037500040300C9000200D900E900F90109002A918
:1037600055483038FDF7B0FA012240215148FFF7A3
:1037700043F80D208DF8040004208DF80500082082
:103780008DF8060001208DF8070001A8FCF75DFF09
:1037900000BF49483038FDF71EFB0028F9D1012150
:1037A00045483038FDF7CAFA11B000BD10B50446DF
:1037B0002046FFF705FFFFF74DFFFFF7A1FF10BD04
:1037C00010B500F0ABFC40F224413A48FFF758F83E
:1037D00078B300BF37480088C4B23648001D00885F
:1037E000C4B2002134483038FDF7A8FA102131481E
:1037F000FFF73DF830483038FDF7C3FAC0F50070E8
:1038000030490880084602882D49801C08F03DFA9E
:103810002D4929483038FDF70AFB4FF4007126483E
:103820003038FDF7ACFA012123483038FDF786FA2D
:1038300000BF40F227711F48FFF70CF828B900229B
:1038400040F226611B48FEF7E0FF00F078FC10BD57
:1038500010B500F063FC1D491748FDF7CCFA68B1BC
:103860001A491548FDF7E3FA00211348FDF766FAF7
:10387000012240F226610F48FEF7C7FF00F05FFC0F
:1038800010BD70B504460D462A4621460B4808F087
:10389000FCF900BF0848FDF79EFA0028FAD1294636
:1038A0000548FDF76CFA01210348FDF747FA70BDA2
:1038B00000000240004C004070600240863A002048
:1038C000863C0020863E002000003D1020000020A5
:1038D00030B58BB004460D4601210802FDF793FE7A
:1038E00001212020FDF746FE092211462048FDF760
:1038F0002EFC4FF40070099002208DF82800032060
:103900008DF8290000208DF82A0001208DF82B0069
:1039100009A91748FDF790FB0795A0B2ADF818006C
:103920000020ADF82000ADF81A0006A91148FEF7F6
:1039300022F86020ADF804000220ADF8100001204C
:10394000ADF8060001A90B48FEF7AAF808210948BE
:10395000FEF733FA01210748FEF787FC01210548ED
:10396000FEF774F801210348FEF78EF80BB030BD66
:10397000001402400020004000B59DB00121080263
:10398000FDF752FE01210846FDF7F4FD012148052F
:10399000FDF7F0FD0120019003208DF809008DF85E
:1039A000080000208DF80A008DF80B0001A951488D
:1039B000FDF742FB4FF4C060FCF742FE38208DF863
:1039C0000C0001208DF80D008DF80E008DF80F0011
:1039D00003A8FCF73AFE01210802FDF77AFE002158
:1039E0004FF48070FDF775FE4348FDF7CBF800BF3C
:1039F0004148FDF7F0F90028FAD104903F480590BE
:103A00003F48069040200790012008900020099030
:103A10004FF480600A9000200B900C900D904FF4B2
:103A200000300E9000200F9010901190129004A979
:103A30003148FDF749F901212F48FDF77FF90020B2
:103A40001390169015904FF48030149013A8FCF743
:103A5000A1FE002017908DF860008DF8610019908C
:103A60001B9001208DF8700017A924484C38FCF7F2
:103A700062FE06230122002120484C38FCF7E1FEBB
:103A800001211E484C38FCF787FF01211B484C38A8
:103A9000FCF777FF012119484C38FCF792FE1748D4
:103AA0004C38FCF72AFF1DB000BD002012E014497D
:103AB000098800EE101AB8EE400ADFED120A80EE17
:103AC000201A9FED110A21EE000A104981ED000A2B
:103AD000411CC8B20128EADB704710B50C49064802
:103AE000FDF789F9012803D109490348FDF79FF93A
:103AF00010BD000000000240106402404C20014054
:103B00002800002000008045333353402C00002063
:103B1000208000101CB501210720FDF72BFD10208F
:103B2000009000208DF8040003208DF8050001208E
:103B30008DF807008DF8060069460848FDF77CFA05
:103B400042F23000009069460548FDF775FA802082
:103B5000009069460348FDF76FFA1CBD0000024063
:103B6000000802400004024010B588B0044601215C
:103B70000420FDF7FFFC01210820FDF7FBFC0121DB
:103B80000805FDF740FD08220C21B948FDF7DFFAD2
:103B900008220221B748FDF7DAFA02208DF81C004E
:103BA00000208DF81E004FF48050069001208DF803
:103BB0001F0002208DF81D0006A9AD48FDF73CFA54
:103BC0000420069006A9AB48FDF736FA02A8FEF7D6
:103BD00044FD029402A9A848FEF7D9FC35208DF8CF
:103BE000040000208DF8050002208DF80600012059
:103BF0008DF8070001A8FCF728FD012240F22441BE
:103C00009D48FEF702FE01219B48FEF748FD08B0E3
:103C100010BD00B591B001214805FDF7ABFC9748F8
:103C2000FCF7B0FF00BF9548FDF7D5F80028FAD1A2
:103C30004FF0006002909048001D0390904804905F
:103C400040200590C0000690002007904FF480604F
:103C50000890002009900A900B904FF400300C90CF
:103C600000200D900E900F90109002A98348FDF750
:103C70002BF8012210218148FDF7EDF80122802167
:103C80007D48FEF7B9FD2F208DF8040000208DF847
:103C9000050003208DF8060001208DF8070001A81B
:103CA000FCF7D3FC00BF7548A838FDF794F800284E
:103CB000F9D100217148FDF741F811B000BD00B500
:103CC00091B001214805FDF755FC6C48A838FCF778
:103CD00059FF00BF6948A838FDF77DF80028F9D1E1
:103CE0004FF0006002906448001D03906548049006
:103CF000002005904FF400700690002007904FF4CC
:103D000080600890002009900A900B904FF440309A
:103D10000C9000200D900E900F90109002A9574823
:103D2000A838FCF7D1FF012240215348FEF764FD7B
:103D30000B208DF8040000208DF805000B208DF875
:103D4000060001208DF8070001A8FCF77EFC00BFEB
:103D50004A48A838FDF73FF80028F9D10121474823
:103D6000A838FCF7EBFF11B000BD10B504462046A3
:103D7000FFF7FAFEFFF74DFFFFF7A1FF10BD10B5EB
:103D800000F0CCF940F224413B48FEF779FD70B3D6
:103D900000BF39480088C4B237488088C4B20021C7
:103DA0003648A838FCF7CAFF10213348FEF75FFDFC
:103DB0003248A838FCF7E5FFC0F5007032490880AA
:103DC000084602882F49801C07F05FFF2F492B48C7
:103DD000A838FDF72CF84FF400712848A838FCF7F4
:103DE000CEFF01212548A838FCF7A8FF00BF40F20C
:103DF00027712148FEF72EFD28B9002240F22661E6
:103E00001D48FEF702FD00F09AF910BD10B500F054
:103E100085F94FF020511948FCF7EDFF70B14FF0D4
:103E200020511648FDF703F800211448FCF786FFDF
:103E3000012240F226611048FEF7E7FC00F07FF90E
:103E400010BD70B504460D462A4621460C4807F0C1
:103E50001CFF00BF0948FCF7BEFF0028FAD1294625
:103E60000648FCF78CFF01210448FCF767FF70BD92
:103E700000080240000C024000500040B8600240C0
:103E80008842002088440020884600202D009010A1
:103E90001CB501210846FDF76DFB80200090012034
:103EA0008DF8040003208DF8050001208DF807002F
:103EB00069460748FDF7C0F880210548FDF73AF943
:103EC0006420FEF79EFD80210148FDF731F91CBDFD
:103ED000000002401FB56846FDF77BFA019804B068
:103EE00010BD10B5FFF7F6FF04461848006840F013
:103EF000807016490860002015494860084600682F
:103F000040F001000860204605F0D3FF10BD1049C5
:103F1000486870472DE9F0478246FFF7DBFF4FF016
:103F2000000980460B4A00234046494607F036FE0A
:103F3000064632460B465046002107F02FFE044647
:103F40000D4620462946BDE8F0870000FCED00E064
:103F5000001000E040420F0070470000002400BF46
:103F600019E000BF00BF05F0FDFE044600BF00BF22
:103F7000FA480068401CF9490860F9480068401C8C
:103F8000F749086000BF00BF204605F0EFFE00BF04
:103F900000BF07F007FCE4E710B58AB00446002034
:103FA000EE4908600B2000210591CDE90704069138
:103FB0000846EC490968EC4A1268EC4B1B68CDE9ED
:103FC0000132CDE903103F200023AFF26F02E8A1D8
:103FD0000090EC4803F0A3FD0AB010BD00210AE0F8
:103FE00001EB4102E84B03EB8200002202810260F8
:103FF00042604A1CD1B24029F2D3704770B50446E2
:1040000007F0D8FB0020E1490870E1490870E14958
:104010000870E1490860E1490860E1490870E14938
:104020000870E1490870E1490860E1490860E14928
:104030000860E1490870E14800680A21B0FBF1F02E
:10404000DF490860DF48006858B1DF48056845B1BE
:10405000DC48066803E0761E002028602D1D002E37
:10406000F9D10020D9490860D9490860D9490860C8
:10407000D9490860D9490860D9490860D949086018
:10408000D949087002F05EFAFFF7A8FF204601F058
:1040900071FC208800B170BD204601F06AFD2088C7
:1040A00000B1F8E7204601F073FD208800B1F2E787
:1040B000204602F033FA208800B1ECE7204602F0F7
:1040C000DAFD208800B1E6E7204603F04AF92088AF
:1040D00000B1E0E7204604F0B2FD208800B1DAE745
:1040E0002046FFF759FF208800B1D4E7204604F0AE
:1040F000C4FE208800B1CEE7204603F0AEFB208846
:1041000000B1C8E7204605F085FD208800B1C2E770
:1041100000F0EEFDFFF720FF00BFBCE79C480078F1
:10412000012800D0704799480078FA2800DBF9E7A9
:1041300096480078401C9549087000BFF2E710B51A
:10414000002493480078012800D010BD00BF05F07E
:1041500009FE044600BF8D48007828B900BF2046FC
:1041600005F004FE00BFF0E788480078401E87494C
:10417000087008460078002805DD00BF204605F0DD
:10418000F5FD00BFE1E783480078002805DD00BFAA
:10419000204605F0EBFD00BFD7E702F0DDF98149CD
:1041A00008700846007800EB4000774951F820007D
:1041B0007A4908600846006877490968884205D14D
:1041C00000BF204605F0D2FD00BFBEE7734800687F
:1041D000D0F89000401C71490968C1F890008348EC
:1041E0000068401C8149086007F01AFE00BF2046A5
:1041F00005F0BCFD00BF00BFA7E710B50024634871
:104200000078002800DD10BD62480078002800DD3D
:10421000F9E700BF05F0A6FD044600BF02F09CF9D7
:10422000604908700846007800EB4000564951F894
:1042300020005A49086008460068574909688842C2
:1042400005D100BF204605F091FD00BFDBE75348D4
:104250000068D0F89000401C50490968C1F89000EF
:1042600062480068401C6149086007F0D4FD00BF47
:10427000204605F07BFD00BF00BFC4E710B54548F0
:104280000078012803D1FFF742FE4849086010BDBD
:1042900070B5044600253D480078002803DD46F649
:1042A0006250208070BD3A480078012803D045F65E
:1042B00089602080F6E737480078FA2803DB45F26A
:1042C00009202080EEE700BF00BF05F04BFD05464A
:1042D00000BF00BF2F480078401C2E490870FFF730
:1042E000CDFF00BF00BF284605F040FD00BF00BF66
:1042F0000020208000BFD5E710B52648007880B99F
:10430000FFF705FE29490968441A29480068A042B8
:1043100001D22748046027480068A04201D22548FE
:10432000046010BD70B504460025184800780028C8
:1043300003DD46F66550208070BD154800780128E1
:1043400003D045F689602080F6E71248007818B956
:1043500046F664502080EFE74AE000005400002059
:10436000A4000020B4BE0008B0BE0008ACBE000827
:1043700075432F4F532D4949492049646C6520549A
:1043800061736B00DC5B0020AC5C002058000020F7
:10439000590000208C000020E4000020E8000020EC
:1043A00072000020730000207400002080000020B4
:1043B0008400002088000020940000200CBF00082A
:1043C00090000020DCBE0008D8BE000838000020A5
:1043D0003C00002040000020440000204800002055
:1043E0004C00002050000020C2000020B800002037
:1043F00000BF00BF05F0B6FC054600BF00BFF8488F
:104400000078401EF64908700846007800280ADD4A
:1044100000BF00BF284605F0A9FC00BF00BF46F65C
:104420006350208088E7FFF767FF00BF00BF284682
:1044300005F09CFC00BF00BFFFF7DFFE00202080DE
:1044400000BF79E72DE9F04105460C4616460027E6
:1044500000BF00BF05F086FC074600BF00BF012D6E
:1044600003D00020DF49087002E00120DD49087018
:1044700014B1DD48046006E0DC4800680A21B0FBA6
:10448000F1F0D949086000BF00BF384605F06EFC66
:1044900000BF00BF00203080BDE8F08110B50146AC
:1044A0000C8924B1012C03D0022C0CD101E000BFF7
:1044B00014E008684A6802610024C4601461D06096
:1044C0000A6048600AE008684A68C36800241C6102
:1044D000C4600261D0600B60486000BF00BF10BDC7
:1044E0002DE9F04104460027C1480078002804DD8A
:1044F00048F2D1402080BDE8F081B948007800281A
:1045000003DD46F663502080F5E7B64800780128C1
:1045100003D046F67B102080EDE700BF00BF05F01A
:1045200021FC074600BF00BFB248007800EB400006
:10453000B14901EB8006308902280ADA00BF00BFCA
:10454000384605F013FC00BF00BF46F67A10208005
:10455000D1E73046FFF7A2FF3568686D18B9A24869
:104560000068A86501E0686DA86500BF00BF384617
:1045700005F0FCFB00BF00BFFFF73FFE00202080DE
:1045800000BFB8E710B504469C480078E8B901F0D0
:10459000E3FF9B49087008460078964908709848E0
:1045A000007800EB4000944951F8200095490860DC
:1045B000084600689449086001209049087007F097
:1045C00019FC43F69920208002E045F68A6020809D
:1045D00010BD01460020088047F25D60704730B58D
:1045E00048B14568C1F8C05000F1080422689368DA
:1045F0001D6AC56113E091F83450022D02D0072DD9
:1046000008D103E081A5C1F8C05007E081A5C1F839
:10461000C05003E082A5C1F8C05000BF00BF30BD4C
:10462000F0B58E6896F8375007893FB901270781A2
:1046300000274F600F600160416023E007897F1C05
:104640000781026806E0946894F83770AF4200DD95
:1046500002E05268002AF6D100BF32B900274F604D
:1046600043680B60596041600CE017682FB9116016
:1046700000270F604A60016004E013680B604A6025
:1046800059601160F0BD10B5C287016300230AE0D4
:1046900000244C600C600C614C610C83CC61886020
:1046A00020315C1CA3B29342F2DB10BD2DE9F04136
:1046B000054695F8370000EB40004F4901EB8004B8
:1046C0002F69EE6887B946B90020208120606060BC
:1046D00095F8370001F062FF0EE02089401E20812E
:1046E00000203061266007E02089401E2081FE60A6
:1046F0000EB9676000E0376100202861E860BDE81E
:10470000F08138B504460D4685B16B460222294634
:10471000204604F0F3FBBDF8000018B9032084F82C
:10472000360006E0022084F8360002E0022084F819
:1047300036002046FFF7BAFF38BD2DE9F0410546A7
:104740000C4616461F463048006880F8346000204A
:104750002D49096881F8350039462B480068FFF774
:10476000D0FF6CB104F10808EC600122294626480C
:104770000068FFF788FF29464046FFF751FF06E033
:10478000002021490968C8871F49096808631E4835
:1047900001682046FFF723FFBDE8F08110B50489CA
:1047A000012C03D100240460446011E00C6824B99A
:1047B0004A680024146002600AE04C6824B90B685F
:1047C00000245C60436003E00B684A685A60136031
:1047D0000489641E048100244C600C6010BD00003C
:1047E0008C00002094000020900000200CBF0008E6
:1047F0005800002072000020AC5C0020590000200E
:1048000073000020E8000020E40000205461736B76
:10481000205100005461736B2053656D000000004F
:10482000200000002DE9F0410446256BE68F0AE0E8
:10483000D5F80C8008F1080729463846FFF7AEFF87
:104840002035701E86B2002EF2DC0020E087206347
:10485000BDE8F08130B50346086BCC8F08E0C56831
:104860009D4202D10361C26104E02030651EACB2FA
:10487000002CF4DC00BF30BD10B590F8373003EBEE
:104880004303F74C04EB83010B893BB901230B81F4
:104890000023C36003610860486009E00B895B1C6A
:1048A0000B810B68C360002303610A681061086014
:1048B00010BD10B590F8373003EB4303E84C04EB20
:1048C00083010B893BB901230B810023C360036182
:1048D0000860486008E00B895B1C0B810023C36003
:1048E0004A680261D060486010BD10B5044694F873
:1048F000370001F043FE94F83700DA49097888421E
:1049000003D12046FFF7D5FF02E02046FFF7B4FFB2
:1049100010BD10B50446204604F0B4F994F83600F2
:1049200000F0040010B92046FFF7DFFF10BD70B59E
:1049300005460C46164694F83600082847D2DFE8AC
:1049400000F0040508090607272800BF00BF00BFC4
:104950003EE000BF94F83400032804D132462146DB
:104960002846FFF777FF0020E065A4F86000266482
:1049700015B12046FFF756FF2046FFF7CAFF00207B
:104980003434A07001206070002004F834091FE066
:1049900000BF94F83400032804D13246214628464B
:1049A000FFF758FF0020E065A4F86000266415B109
:1049B0002046FFF737FF204604F064F90420343422
:1049C000A07001206070002004F8340900E000BFEE
:1049D00000BF70BD30B5AFF2B815C1F8C05000F1DE
:1049E000080422681AB193681D6AC56102E0AFF23B
:1049F000D015C56130BD2DE9F04304460F4684F85B
:104A00003770256BB4F83E8013E0D5F80C9009F1AF
:104A100008063089012807D929463046FFF7BEFE2F
:104A200029463046FFF7FCFD2035A8F101001FFAAA
:104A300080F8B8F1000FE8D1BDE8F08300210160F3
:104A400041600181704703895B1C038103684B60EF
:104A500000230B60026802B1116001600389012B21
:104A600000D14160704730B50346086BCC8F08E039
:104A7000C5689D4202D10361C26104E02030651E19
:104A8000ACB2002CF4DC00BF30BD70B506460C465D
:104A9000154694F83600082845D2DFE800F00405F2
:104AA00008090607262700BF00BF00BF3CE000BF83
:104AB00094F83400032804D12A4621463046FFF7F3
:104AC000D2FF0020E065A4F8600025642046FFF7CF
:104AD000A9FE2046FFF71DFF00203434A0700220FD
:104AE0006070002004F834091EE000BF94F8340020
:104AF000032804D12A4621463046FFF7B4FF0020A0
:104B0000E065A4F860002564204604F0BBF8204668
:104B1000FFF788FE04203434A0700220607000206B
:104B200004F8340900E000BF00BF70BDF0B50446D2
:104B3000059E086BCD8F0AE0C768A74204D10461C7
:104B400042610383C66104E020306F1EBDB2002DB8
:104B5000F2DC00BFF0BD2DE9F84306460C461746CF
:104B60009846089D94F83600082850D2DFE800F0F7
:104B70000405080906072B2C00BF00BF00BF47E053
:104B800000BF94F83400032807D143463A46214633
:104B900030460095FFF7CAFF03E0E765A4F86080A0
:104BA000256436B12046FFF73DFE21463046FFF72B
:104BB00011FF2046FFF7ADFE00203434A070607076
:104BC00004F8340924E000BF94F83400032807D126
:104BD00043463A46214630460095FFF7A7FF03E0DB
:104BE000E765A4F860802564204604F04BF836B1F0
:104BF0002046FFF717FE21463046FFF7EBFE042064
:104C00003434A0700020607004F8340900E000BF64
:104C100000BFBDE8F88370B505460026124800784D
:104C2000012800D070BD00BF00BF05F09BF806460C
:104C300000BF00BF2C683CB900BF00BF304605F084
:104C400095F800BF00BFEDE70848844210D100BFCF
:104C500000BF304605F08AF800BF00BFE2E7000061
:104C6000AC5C00207200002094000020DC5B00207F
:104C7000A06D10B1A06D401EA065A06D38B100BF41
:104C800000BF304605F072F800BF00BFCAE72889B0
:104C9000022807DA00BF00BF304605F067F800BF02
:104CA00000BFBFE710480078002807DD00BF00BF45
:104CB000304605F05BF800BF00BFB3E72846FFF7BA
:104CC000EDFB2C68606D18B908480068A06501E02C
:104CD000606DA06500BF00BF304605F047F800BF1B
:104CE00000BF00BF9EE700008C0000209000002065
:104CF000244A2549254A264A2649274A2748284A38
:104D0000284A294A294A2A482A482B4A2B482C4A09
:104D10002C482D4A2D482E482E482F482F4A304ADD
:104D2000304A3148314A324A3248334833483448AD
:104D3000344835483548364A364A374A374A38487B
:104D400038483948394A3A4A3A4A3B483B483C484D
:104D50003C493D483D4A3E4A3E4A3F4A3F4A404A16
:104D6000404A4148414A424A42484348434A444AE9
:104D70004448454A454A46484648474800BF00BF60
:104D800000BF704750BF0008B8C0000851BF0008FE
:104D900052BF000854BF000858BF00085CBF00089D
:104DA00059BF000884BF000885BF000886BF0008FF
:104DB00088BF00088ABF00088EBF000890BF0008A7
:104DC000B0BF0008B2BF0008B4BF0008B6BF0008FB
:104DD000B8BF0008BABF0008BCBF0008E8BF0008A1
:104DE000E9BF0008EABF0008ECBF0008EEBF0008FA
:104DF000EFBF0008F0BF0008F2BF0008F4BF0008D2
:104E0000F6BF0008F8BF0008FABF0008FCBF0008A2
:104E10002CC000082DC000082EC000082FC00008BC
:104E200030C0000832C0000834C000085CC0000870
:104E30005DC000085EC000085FC0000860C00008D8
:104E400062C0000864C0000868C0000869C00008AB
:104E50006AC000086BC000086CC000086DC0000884
:104E60006EC000086FC0000870C0000872C0000863
:104E700073C0000874C0000876C0000878C000083D
:104E800079C000087CC00008B0C00008B1C00008AC
:104E9000B2C00008B4C00008B6C00008F8A1C161E3
:104EA00000214161F749096811B90021816105E0DC
:104EB000F44909688161F34909684861F14908606A
:104EC00070472DE9F04104460F4616461D464FF047
:104ED0000008ED480078002804DD42F6E1602880F3
:104EE000BDE8F0811CB945F6C3502880F8E700BF43
:104EF00000BF04F037FF804600BF00BFE3482060DA
:104F0000676026620020606204F10800FFF796FDEA
:104F10002046FFF7C3FFDE480088401CDC490880BC
:104F200000BF00BF404604F021FF00BF00BF0020CB
:104F3000288000BFD4E770B50446D6482060D6A0CC
:104F400060600020206204F108052846FFF776FD26
:104F500070BD426981693AB9CA4B196009B1002331
:104F60004B610023836109E019B900239361436118
:104F700004E091614A6100238361436170472DE938
:104F8000FC5F05468846144600200090BE48007825
:104F9000002805DD43F2C92020800020BDE8FC9FE9
:104FA00025B945F6C35020800020F7E7B8F1000F7F
:104FB00003D0B8F1010F02D100E000BF04E045F6D4
:104FC000256020800020E9E700BFB04928688842BA
:104FD00004D045F6C45020800020DFE700BF00BFAA
:104FE00004F0C0FE009000BF00BF05F10809B9F849
:104FF00008603746B8F1000F03D0B8F1010F49D16E
:1050000020E0A7B92846FFF7A4FFA1480088401E6A
:105010009F4908802846FFF78EFF00BF00BF009819
:1050200004F0A4FE00BF00BF0020208009E000BF04
:1050300000BF009804F09AFE00BF00BF47F25F1067
:10504000208032E0FEF763FF01900AE0D9F800A06B
:10505000DAF808B059462846019AFFF716FD701E87
:1050600086B2002EF2D12846FFF773FF88480088E9
:10507000401E874908802846FFF75DFF00BF00BF3C
:10508000009804F073FE00BF00BFFFF7B6F80020E1
:1050900020800AE000BF00BF009804F067FE00BF58
:1050A00000BF45F62560208000BF00BF384675E789
:1050B0002DE9F04106460F4614461D46DDF81880DE
:1050C00077480068C0F8804075480068A0F88850AC
:1050D000002073490968C1F884004346012239461B
:1050E0003046FFF72AFBBDE8F0812DE9F04F8BB089
:1050F0000546884693469946DDE9147400200190E0
:1051000061480078002806DD46F2AE1020800020BD
:105110000BB0BDE8F08F25B945F6C35020800020C4
:10512000F6E748F20101A9EB0100894536D01ADC07
:1051300040F20111A9EB010089452BD00CDCB9F13B
:10514000010F23D0B9F1020F21D0B9F1040F1FD004
:10515000B9F1080F2AD11CE001281CD003281BD06C
:10516000072823D119E0B0F5807F1BD006DC012889
:1051700015D0032814D0072818D112E0A0F201108E
:1051800088B1022810D0062810D10EE000BF00BF61
:1051900000BF00BF00BF00BF00BF00BF00BF00BF17
:1051A00000BF00BF00BF00BF00BF04E045F62560A0
:1051B00020800020ACE700BF34492868884204D032
:1051C00045F6C45020800020A2E709F4807010B199
:1051D0004FF0010A01E04FF0000A0FB100203860E3
:1051E00009F00F000A9000BF00BF04F0BBFD019062
:1051F00000BF00BF0A9801287ED002287DD0042875
:1052000002D008287AD15FE0286A00EA08064645FD
:1052100017D1BAF1010F02D1286AB04328622048A1
:105220000068C0F884600FB1686A386000BF00BFD2
:10523000019804F09BFD00BF00BF00202080304695
:1052400066E709F4004058B100BF00BF019804F0C0
:105250008DFD00BF00BF46F2B0102080002057E750
:105260001048007800281FDD00BF00BF019804F03F
:105270007DFD00BF00BF46F663502080002047E759
:10528000200000005C00002058000020464C4147F0
:10529000600000204E4F4E453F464C414700000005
:1052A000E40000208C0000204B464246294602A81C
:1052B000CDF800B0FFF7FCFE00BF00BF019804F07E
:1052C00055FD00BF00BFF1E0286A00EA0806DEB124
:1052D000BAF1010F02D1286AB0432862FC48006885
:1052E000C0F884600FB1686A386000BF00BF0198E1
:1052F00004F03CFD00BF02E035E080E0CAE000BF02
:1053000000202080304603E709F4004058B100BF78
:1053100000BF019804F02AFD00BF00BF46F2B010A4
:1053200020800020F4E6EB48007800280BDD00BF69
:1053300000BF019804F01AFD00BF00BF46F663509D
:1053400020800020E4E64B464246294602A8CDF8DC
:1053500000B0FFF7ADFE00BF00BF019804F006FDEE
:1053600000BF00BFA2E0286A28EA0006464517D120
:10537000BAF1010F02D1286A30432862D44800688C
:10538000C0F884600FB1686A386000BF00BF019840
:1053900004F0ECFC00BF00BF002020803046B7E6E0
:1053A00009F4004058B100BF00BF019804F0DEFCD2
:1053B00000BF00BF46F2B01020800020A8E6C5481C
:1053C000007800280BDD00BF00BF019804F0CEFC80
:1053D00000BF00BF46F663502080002098E64B4691
:1053E0004246294602A8CDF800B0FFF761FE00BF93
:1053F00000BF019804F0BAFC00BF00BF56E0286A65
:1054000028EA0006BEB1BAF1010F02D1286A304382
:105410002862AF480068C0F884600FB1686A3860DD
:1054200000BF00BF019804F0A1FC00BF00BF002036
:10543000208030466CE609F4004058B100BF00BF40
:10544000019804F093FC00BF00BF46F2B01020802A
:1054500000205DE69F48007800280BDD00BF00BFFC
:10546000019804F083FC00BF00BF46F66350208023
:1054700000204DE64B464246294602A8CDF800B032
:10548000FFF716FE00BF00BF019804F06FFC00BFDD
:1054900000BF0BE000BF00BF019804F067FC00BF35
:1054A00000BF45F625602080002031E600BFFEF7F2
:1054B000A4FE00BF00BF04F055FC019000BF00BF78
:1054C0008348006890F8350030B101280CD00228DC
:1054D00028D0032836D117E01FB17D480068006C42
:1054E00038600020208038E01FB179480068006CE7
:1054F000386000BF00BF019804F038FC00BF00BF57
:1055000046F2A910208028E00FB10020386000BFCB
:1055100000BF019804F02AFC00BF00BF47F2D92069
:1055200020801AE01FB16A480068006C386000BF34
:1055300000BF019804F01AFC00BF00BF45F6C2503E
:1055400020800AE000BF00BF019804F00FFC00BFFC
:1055500000BF46F62E60208000BF00BF208808B143
:105560000020D5E55A480068D0F88460BAF1010FF0
:1055700020D10A9801280BD002280AD0042802D092
:1055800008280AD100E000BF286AB043286210E072
:1055900000BF286A304328620BE000BF00BF0198BB
:1055A00004F0E4FB00BF00BF45F62560208000202A
:1055B000AEE500BF00BF00BF019804F0D7FB00BFFD
:1055C00000BF002020803046A2E52DE9F05F0546AF
:1055D0000E4614464FF0000A3F480078002805DDCB
:1055E00046F2AA1020800020BDE8F09F25B945F6BC
:1055F000C35020800020F7E74EB1B6F5807F07D07A
:10560000B6F5004F05D0B6F5014F04D102E000BF5A
:1056100000BF00BF04E045F6256020800020E3E7DE
:1056200000BF2E492868884204D045F6C450208027
:105630000020D9E700BF00BF04F094FB824600BF02
:1056400000BF05F10807388958B900BF00BF5046B0
:1056500004F08CFB00BF00BF46F2AB10208000209E
:10566000C2E74FF00008FEF752FC83460FE03868AF
:10567000D0F808905A4649462846FFF758F908F1ED
:1056800001001FFA80F8B6F5807F00D002E038896B
:105690000028ECDC00BF00BF00BF504604F066FBF2
:1056A00000BF00BF06F4004008B9FEF7A6FD0020C9
:1056B0002080404698E770B50446002606480078EA
:1056C00000280DDD46F2AE102080002070BD0000E5
:1056D000E40000208C00002058000020464C414788
:1056E00000BF00BF04F03EFB064600BF00BFA54858
:1056F0000068D0F8845000BF00BF304604F036FB8D
:1057000000BF00BF002020802846DFE770B50446B8
:105710000E46154634342665002060702070E56022
:10572000A078343C082816D2DFE800F00405080908
:105730000706101100BF00BF00BF0DE000BF2046EC
:10574000FFF7E7F8002084F8360005E000BF0420EA
:1057500084F8360000E000BF00BF2046FFF762F883
:1057600070BD2DE9F04F85B00446894692469B46B0
:10577000DDF838800020009000BF00BF04F0F2FA8E
:10578000009000BF00BFBAF1000F0AD0BAF1010FBC
:105790000DD0BAF5004F05D06FF40040504460B909
:1057A00006E000BF206A40EA0900206214E000BF62
:1057B000206A20EA090020620EE000BF00BF0098C6
:1057C00004F0D4FA00BF00BF45F62560A8F8000039
:1057D000002005B0BDE8F08F00BFC4F824B004F18C
:1057E000080001900198008958B900BF00BF0098D7
:1057F00004F0BCFA00BF00BF0020A8F80000206A37
:10580000E7E701980768BD6859E07868029095F865
:10581000880000F00F0003900398012821D002288F
:105820002ED0042802D0082836D10EE0206AD5F800
:10583000801000EA0106D5F88000B04204D15A4633
:1058400031462846FFF762FF33E0206AD5F8801022
:1058500000EA010626B15A4631462846FFF756FFB0
:1058600027E0D5F88000216A20EA0106D5F88000FB
:10587000B04204D15A4631462846FFF747FF18E0A8
:10588000D5F88000216A20EA010626B15A46314641
:105890002846FFF73BFF0CE000BF00BF009804F074
:1058A00065FA00BF00BF43F6FF20A8F80000002003
:1058B0008FE700BF029F0FB1BD6800E00025002DFB
:1058C000A3D100BF00BF009804F050FA00BF00BF92
:1058D0000AF4004008B9FEF790FC00BF00BF04F0D6
:1058E00041FA009000BF00BF206A049000BF00BFD3
:1058F000009804F03BFA00BF00BF0020A8F80000A9
:10590000049866E72DE9F8430546884616461C4686
:105910002DB945F6C35020800020BDE8F8834EB174
:10592000012E08D0B6F5004F06D06FF40040304489
:1059300020B902E000BF00BF00BF04E045F62560CB
:1059400020800020E9E700BF0F492868884204D082
:1059500045F6C45020800020DFE7FEF7D8FA8146E4
:105960004B463246414628460094FFF7FAFE07466A
:105970003846D2E70021054A1160054A11800180AE
:1059800070470000E4000020464C41475C000020C6
:1059900060000020002181617949096811B9002166
:1059A000C16105E076490968C16175490968886186
:1059B0007349086070472DE9FF4F83B004461546D0
:1059C0001F46DDE91096002000906E480078002800
:1059D00005DD45F2B960308007B0BDE8F08F1DB934
:1059E00045F2BB603080F7E7022F03DA45F2BC6076
:1059F0003080F1E7B9F1040F03D245F2C160308085
:105A0000EAE74FF0030ABAF1000F0DD005EA0A00E9
:105A100018B145F2BB603080DEE709EA0A0018B130
:105A200045F2C1603080D7E7AB46A846781E80B209
:105A300001900020029007E0C844CBF80080C346E4
:105A40000298401C80B20290DDE901108842F3DB2D
:105A50000020CBF8000000BF00BF04F083F90090E5
:105A600000BF00BF484820600498A0606560E56002
:105A7000A7826782A4F810902046FFF78BFF434867
:105A80000088401C4149088000BF00BF009804F016
:105A90006DF900BF00BF0020308000BF9CE72DE9FA
:105AA000F04104460D4600272CB945F2BF6028801E
:105AB0000020BDE8F08100BF00BF04F053F90746A5
:105AC00000BF00BFA08A58B900BF00BF384604F02D
:105AD0004DF900BF00BF45F2C26028800020E8E712
